:020000040800F2
:10000000E0060020290200086D1900087518000894
:1000100069190008A1060008591B0008000000002B
:10002000000000000000000000000000951A000819
:10003000A50600080000000071190008991A0008C0
:10004000430200084302000843020008430200087C
:10005000430200084302000843020008430200086C
:10006000430200084302000843020008430200085C
:10007000430200084302000843020008430200084C
:10008000430200084302000843020008430200083C
:10009000430200084302000843020008430200082C
:1000A000430200084302000843020008430200081C
:1000B000430200084302000843020008430200080C
:1000C00043020008430200084302000843020008FC
:1000D00043020008430200084302000843020008EC
:1000E00043020008430200084302000843020008DC
:1000F00043020008430200084302000843020008CC
:1001000043020008430200084302000843020008BB
:1001100043020008430200084302000843020008AB
:10012000430200084302000843020008430200089B
:10013000430200084302000843020008430200088B
:10014000430200084302000843020008430200087B
:10015000430200084302000843020008430200086B
:10016000430200084302000843020008430200085B
:100170004302000843020008430200080000000098
:10018000430200084302000800F002F800F03CF8C7
:100190000AA090E8000C82448344AAF10107DA45E2
:1001A00001D100F031F8AFF2090EBAE80F0013F0F8
:1001B000010F18BFFB1A43F001031847581F000036
:1001C000781F0000103A24BF78C878C1FAD85207C7
:1001D00024BF30C830C144BF04680C6070470000C1
:1001E0000023002400250026103A28BF78C1FBD840
:1001F000520728BF30C148BF0B6070471FB501F0E0
:10020000F7FE1FBD10B510BD00F0BCF81146FFF79A
:10021000F5FF01F0A3FC00F0DAF803B4FFF7F2FFFA
:1002200003BC00F0DDF8000009488047094800479A
:10023000FEE7FEE7FEE7FEE7FEE7FEE7FEE7FEE796
:10024000FEE7FEE704480549054A064B70470000F3
:10025000451B000889010008E0000020E00600209E
:10026000E0020020E002002053EA020C00F0698066
:100270002DE9F04B4FF00006002B1FBFB3FA83F5BA
:1002800003FA05F424FA05F65E4012BF1643B2FAEB
:1002900082F502FA05F4C5F120051EBF22FA05FC1D
:1002A00044EA0C04203556EA044C4FEA144418BFC3
:1002B000641C4FF000084FF00009904271EB030CF2
:1002C00039D3002919BFB1FA81F701FA07F6B0FA5C
:1002D00080F700FA07F6C7F120071EBF20FA07FCD7
:1002E00046EA0C062037B6FBF4FCA7EB0507103FE7
:1002F00007F01F0BCBF120062CFA06F60CFA0BFBCD
:1003000044BFB3460026202FA4BF5E464FF0000B2B
:100310005BEA060C08BF4FF0010B19EB0B0948EB29
:100320000608ABFB027C06FB02CC0BFB03CCC01B1C
:1003300071EB0C01C1E70B46024641464846BDE859
:10034000F08B13B5084318BF4FF0FF300146AFF3F1
:100350000080BDE81C40704770477047704710B57B
:1003600000F008F8006810BD10B5044600F002F86F
:10037000046010BD0048704710000020004870471E
:10038000100000207546FFF7F9FFAE4605006946EC
:10039000534620F00700854618B020B5FFF752FFFE
:1003A000BDE820404FF000064FF000074FF0000876
:1003B0004FF0000BAC46ACE8C009ACE8C009ACE8B3
:1003C000C009ACE8C00921F007018D46704710B59F
:1003D0000446AFF300802046BDE81040FFF71DBF84
:1003E00001491820ABBEFEE726000200704700005E
:1003F0002DE9F04F81B02DED028B82B08846B0F927
:100400000110074601904FF47A704843144601F0FA
:10041000D9FC9FED398B04F1010AB0EE480A05467C
:10042000F0EE680A50460E4601F0C2FB51EC100B8C
:100430002A46334601F0DEFC9FED310B5BEC109B4E
:100440004A465B4601F0D6FC9FED2F0B55EC106B36
:1004500032462B4601F0CEFC01F032FCC8F8000019
:10046000B7F903004FF47A714843444601F0AAFCFF
:10047000B0EE480A0746F0EE680A5046884601F09A
:1004800097FB51EC100B3A46434601F0B3FC4A4649
:100490005B4601F0AFFC32462B4601F0ABFC01F0AD
:1004A0000FFC606001984FF47A71B0F90500A04626
:1004B000484301F087FCB0EE480A0746F0EE680AB0
:1004C00050460C4601F074FB51EC100B3A462346A3
:1004D00001F090FC4A465B4601F08CFC32462B460C
:1004E00001F088FC01F0ECFBC8F8080002B0BDEC9C
:1004F000028B01B0BDE8F08F000000000000F03F6B
:10050000000000000000F83F000000000000003F75
:10051000F0B583B00024C4F202042046102100226A
:1005200000F0AEF940F284057E20C2F20005B62745
:100530008DF807000DF10701284601224FF47A7368
:100540008DF8067000F09AFE0DF106012846012292
:100550004FF47A7300F092FE012000F0A9F82046D3
:100560001021012200F08CF904F58066304601214B
:10057000002200F085F914208DF809000DF1090121
:10058000284601224FF47A738DF8087000F076FE49
:1005900002A9284601224FF47A7300F06FFE1E2054
:1005A00000F086F830460121012200F069F920466A
:1005B0001021002200F064F9012000F079F80420F5
:1005C0008DF80A007D208DF80B000DF10B012846F7
:1005D00001224FF47A7300F051FE0DF10A01284612
:1005E00001224FF47A7300F049FE012000F060F818
:1005F00020461021012200F043F903B0F0BD0000B5
:10060000F0B581B00024C4F2020415460E46074638
:1006100020461021002200F033F90A2000F048F8AB
:1006200047F0800040F28407C2F200078DF8030013
:100630000DF10301384601224FF47A7300F01EFEDB
:10064000384631462A464FF0FF3300F017FD20466A
:100650001021012200F014F90A2000F029F801B05D
:10066000F0BD000010B582B040F2840400F07F00BD
:10067000C2F200048DF806108DF807000DF1070195
:10068000204601224FF47A7300F0F8FD0DF10601C7
:10069000204601224FF47A7300F0F0FD02B010BD45
:1006A000FEE700007047000072B600BFFEE70000E2
:1006B000B0B5044600F0EAF8054640F20000C2F288
:1006C00000000078611C18BF044400BF00F0DEF891
:1006D000401BA042FAD3B0BD2DE9F04F82B000F12B
:1006E0003E4241F6004502F1FF77C4F202050822BE
:1006F00043F6004E4FEAB726A84208BF0722C4F2CD
:10070000010E072E38BF4FEAB72201250026002729
:100710004FF00008009208E008F101080437B8F132
:10072000100F06F1020600F0A7800C6805FA08F920
:1007300014EA090FF0D0D1F804B003220BF0030C37
:10074000ACF10104B240012C6FEA020A10D88268B1
:10075000CC6802EA0A02B440224382604268CBF3CA
:10076000001422EA090204FA08F42243426005E078
:10077000BCF1030F02D14FF0030C20E0C2688C687B
:1007800002EA0A02B4402243BCF1020FC26016D151
:100790006FF0030202EA58020244D2F820C007F0C8
:1007A0001C050F230C69AB402CEA030304FA05F582
:1007B0002B431362D1F804B001250BF0030C02683F
:1007C0000CFA06F302EA0A021A431BF4403F0260E5
:1007D000A2D0002243F644030192C4F202031A6835
:1007E0004FF6084C42F480421A601A68CFF6FF7C3C
:1007F00002F480420192019A28F00302724452F8F6
:100800000C3007F00C050F24AC40A343009C04FA05
:1008100005F52B4342F80C30DEF808204B6842EA1D
:10082000090543F60C4CDC0258BF22EA0905CEF854
:100830000850C4F2010CDCF800209C0242EA0905D1
:1008400058BF22EA0905CCF80050DEF804209C03CA
:1008500042EA090558BF22EA0905CEF80450DEF83D
:100860000020DB0342EA090558BF22EA0905CEF859
:100870000050012550E700BF02B0BDE8F08F000036
:10088000002A08BF090481617047000040F2DC00C3
:10089000C2F200000068704740F2000040F2DC0144
:1008A000C2F20000C2F2000100780A681044086039
:1008B0007047000080B543F60040C4F202000168B2
:1008C00041F400710160016841F4806101600168D8
:1008D00041F480710160032000F074F80F2000F0F3
:1008E00005F800F027F8002080BD000070B540F248
:1008F0000006C2F2000640F208013278C2F200019E
:100900004FF47A730968B3FBF2F20446B1FBF2F1DB
:10091000084600F099FF0F2C4FF0010508D838B9B0
:100920004FF0FF3021460022002500F01FF87460D0
:10093000284670BD82B0002043F640010190C4F209
:1009400002014A6842F480424A604A6802F48042E6
:100950000192019A0090086840F080500860086891
:1009600000F080500090009802B0704710B54EF62D
:100970000C5CCEF2000CDCF80030C3F3022E8EF0DB
:100980000704042C28BF0424BEF103034FF0FF3EEC
:100990000EFA04F438BF0023A14399400EFA03F382
:1009A0009A43114300F00F0200F160430901043A39
:1009B00003F564436244002848BF02F10C03197038
:1009C00010BD00004EF60C51CEF200010A684FF641
:1009D000FF031A4060F30A2242F0806040F0FD708D
:1009E000086070472DE9F041002800F08B8043F645
:1009F0000808C4F202080446D8F8F8030D4600F0CF
:100A00000700884207D288F8F853D8F8F80300F0B6
:100A10000700A84276D12068810717D5410705D580
:100A2000D8F8001041F4E051C8F80010010705D5CE
:100A3000D8F8001041F46041C8F80010D8F8001050
:100A4000A26821F0F0011143C8F80010C0073FD19F
:100A5000D8F8F80300F00700A84207D988F8F8533F
:100A6000D8F8F80300F00700A8424BD120684107EE
:100A700007D5D8F80010E26821F4E0511143C8F816
:100A80000010000708D5D8F80000216920F4604064
:100A900040EAC100C8F8000000F054F8D8F800108F
:100AA00042F20412C1F30311C0F60002515C40F29D
:100AB000080220FA01F140F20400C2F200000068CE
:100AC000C2F200021160FFF711FF0020BDE8F081C3
:100AD0006068811E022907D258F8081C89015CBF92
:100AE0000120BDE8F08111E0012807D158F8081C69
:100AF00089035CBF0120BDE8F08107E058F8081CBD
:100B0000890703D40120BDE8F08100BFD8F80010A8
:100B100021F003010843C8F80000FFF7B7FE0646BE
:100B200041F28837D8F80000616800F00C00B0EBA3
:100B3000810F8DD0FFF7AAFE801BB842F2D90320A7
:100B4000BDE8F08110B543F60404C4F20204606805
:100B500000F00C0008280BD0042819BF42F2004016
:100B6000C0F2F40041F60030C0F2B70010BD00BF83
:100B7000206821682368490241F60031C0F2B701BC
:100B800000F03F02C3F388105CBF42F20041C0F2A4
:100B9000F401A1FB00010023FFF766FB216802229C
:100BA000C1F3014102EB4101B0FBF1F010BD0000C7
:100BB0002DE9F04182B0002868D00446007843F661
:100BC0000006C007C4F202060BD0B06800F00C00AB
:100BD000042840F09F803068800302D560680028B8
:100BE00054D0207880071AD5B06810F00C0F09D0C7
:100BF000B06800F00C00082840F0A6807068400241
:100C000000F1A2803068800702D5E06801283DD15C
:100C10003068216920F0F80040EAC1003060207897
:100C2000000737D4207840074CD4A56955B3B06885
:100C300000F00C00082840F0BB80012D26D0706821
:100C4000E16900F480028A4220D1216A00F03F026B
:100C50008A421BD147F6C071626A0140B1EB821F24
:100C600014D1A16A4FF6FF73C903994300F44032CF
:100C7000A1F580318A4209D1E16A00F07060B0EBE1
:100C8000016F03D1002002B0BDE8F081012002B065
:100C9000BDE8F0816069002840F20000C4F24720FE
:100CA00076D00121C0F8801EFFF7F0FD054600BF99
:100CB000706F8007B6D4FFF7E9FD401B0228F7D913
:100CC000DDE000BF306C10F080580AD100200190A8
:100CD000306C40F080503064306C00F080500190F7
:100CE000019847F20007C4F200073868C00541D4F4
:100CF000386840F480703860FFF7C8FD054600BFD3
:100D00003868C00536D4FFF7C1FD401B0228F7D96B
:100D1000B5E000BFB06800F00C00082803D170688F
:100D200040023FF558AF6068B0F5803F07D0B0F59E
:100D3000A02F40F08D80306840F480203060306813
:100D400040F4803030608DE0E068002852D0002010
:100D5000C4F2472001210160FFF798FD054600BF5E
:100D6000306880073FF554AFFFF790FD401B022825
:100D7000F6D984E0A068012805D005284ED1306F4F
:100D800040F004003067306F40F0010030674FE002
:100D90000021C0F8801EFFF779FD0546706F8007BF
:100DA0007FF540AFFFF772FD401B0228F6D966E0E1
:100DB0000027C4F2472700203866FFF767FD022DA1
:100DC00005460BD1306880015ED5FFF75FFD401B03
:100DD00002284FF00300F5D955E700BF30688001C5
:100DE0007FF550AFFFF752FD401B02284FF0030084
:100DF000F4D948E70020C4F2472000210160FFF742
:100E000045FD0546306880077FF509AFFFF73EFDD9
:100E1000401B02284FF00300F4D934E7316F00285B
:100E200021F001013167316F21F0040131674DD0AC
:100E3000FFF72CFD054641F2883700BF306F800771
:100E400056D4FFF723FD401BB842F7D917E000BF87
:100E50003168002821F480313160316821F480212B
:100E600031604FD0FFF712FD054600BF30688003A8
:100E70003FF5B7AEFFF70AFD401B6428F6D9032003
:100E800002B0BDE8F08100BF04F11C052FCD08437E
:100E900040EA8210D9034FF6FF729143A1F58031E9
:100EA00040EA05600843706001203866FFF7EEFCF9
:100EB000044600BF306880013FF5E4AEFFF7E6FC72
:100EC000001B02284FF00300F4D9DCE6FFF7DEFC3C
:100ED000054641F2883700BF306F800708D5FFF71D
:100EE000D5FC401BB8424FF00300F5D9CBE600BF5C
:100EF000B8F1000F7FF499AE306C20F08050306470
:100F000093E600BFFFF7C2FC054600BF30688003D0
:100F10007FF567AEFFF7BAFC401B64284FF0030073
:100F2000F4D9B0E670B538B10446406A30B100205B
:100F3000206104F1140007E0012070BD6068B0F585
:100F4000827F03D004F11C00002101600026A6620C
:100F500094F8510020B9204684F8506000F03CF825
:100F6000022084F8510094E80F0001F482710568B2
:100F700002F4044225F040050560114403F40062C8
:100F80002369114403F002026369114403F0010272
:100F9000A369E569114403F40072114405F03802B5
:100FA000256A114405F08002A56A114305F4005238
:100FB00011430160626A042101EA134102F0100248
:100FC00011444160C16921F40061C161012066657D
:100FD00084F85100304670BD2DE9F04385B00068BB
:100FE00043F20005C4F20105A84203D005B0BDE8F4
:100FF000F08300BF002643F630000096C4F20200E2
:1010000041696C4641F48051416141694FF00208E9
:1010100001F4805100910099009601684FF0030996
:1010200041F0020101600168052701F00201009111
:1010300000990096016841F00101016000682146B5
:1010400000F00100009000981820009005F5544031
:10105000CDE90186CDF80C900497FFF73DFB802089
:10106000CDE9000805F550402146CDE90269049715
:10107000FFF732FB05B0BDE8F08300002DE9F04139
:1010800082B0044690F85100012819D160681D46CD
:1010900017460E46B0F5827F01D1A068A0B1FFF7D8
:1010A000F5FB8046002E4FF0010018BF002F03D142
:1010B00002B0BDE8F08100BF94F85000012811D1C2
:1010C000022002B0BDE8F081042084F851002046DF
:1010D000314632463B46009500F00EFA02B0BDE8BC
:1010E000F08100BF012084F850000420002184F822
:1010F00051006165A663A787E7872163A186E18622
:10110000A2682068B2F5004F2164616438D001689C
:10111000490640D5E168E08F002944D000287BD003
:10112000681C0CD11BE000BFC068A16B21F8020B4A
:10113000A163E08F0138E087E08F00286CD0206841
:101140008168C907F0D1FFF7A1FBA0EB0800A84216
:10115000F2D342E0FFF79AFBE08F00285CD02068D2
:101160008168C907F6D0C068A16B21F8020BA163A2
:10117000E08F0138E087E08F0028F0D14CE000BF1D
:10118000016821F040010160016821F480410160A3
:1011900001684906BED4016841F040010160E16880
:1011A000E08F0029BAD1B8B3681C0CD124E000BF8D
:1011B000007BA16B0870A06B0130A063E08F013849
:1011C000E087E08F40B320688168C907F0D1FFF75E
:1011D0005DFBA0EB0800A842F3D3012084F8510086
:1011E000002084F85000032002B0BDE8F08100BF69
:1011F000FFF74CFBE08F78B120688168C907F7D012
:10120000007BA16B0870A06B0130A063E08F0138F8
:10121000E087E08F0028EFD16068B0F5827F0ED1C3
:10122000A068B0F5004F02D0B0F5806F0AD12168F8
:10123000B0F5806F0A6822F040020A6002D12046B1
:10124000012101E02046802100222B46CDF80080BC
:1012500000F090FB28B1606D40F020006065202018
:101260006065012084F85100002084F85000606D12
:10127000002818BF012002B0BDE8F0812DE9F0413F
:1012800084B01D4616460F460446FFF7FFFA94F851
:10129000511001290ED18046002F4FF0010018BFD8
:1012A000002E03D104B0BDE8F08100BF94F85000D7
:1012B000012803D1022004B0BDE8F081012084F8A8
:1012C00050000320002184F8510061652763A68641
:1012D000E686A163A187E187A0682164B0F5004F8D
:1012E0002068616407D1016821F040010160016854
:1012F00041F4804101600168490603D4016841F06E
:10130000400101606168731EE268B1FA81F1B3FACD
:1013100083F349095B09B2F5006F41EA030139D152
:1013200031B137F8021BC1602763E08E0138E086D7
:10133000E08E002870D0681C0BD11AE0216B31F8C8
:10134000022BC2602163E08E0138E086E08E002827
:1013500062D0206881688907F0D4FFF797FAA0EB84
:101360000800A842F2D338E0FFF790FAE08E002898
:1013700052D0206881688907F6D5216B31F8022B9D
:10138000C2602163E08E0138E086E08E0028F0D153
:1013900042E000BF39B139780173206B013020631E
:1013A000E08E0138E086E08EB0B3681C0BD123E0FC
:1013B000216B09780173206B01302063E08E0138C6
:1013C000E086E08E40B3206881688907F0D4FFF79B
:1013D0005DFAA0EB0800A842F3D3012084F8510085
:1013E000002084F85000032004B0BDE8F08100BF65
:1013F000FFF74CFAE08E78B1206881688907F7D54D
:10140000216B09780173206B01302063E08E013875
:10141000E086E08E0028EFD12046022101222B46F3
:10142000CDF8008000F0A6FAE0B1606D40F0200039
:10143000606520206065A06838B9002002902068AF
:10144000C1680291806802900298012084F85100DE
:10145000002084F85000606D002818BF012004B0FF
:10146000BDE8F08140F20800C2F20000006849F6D1
:101470008171C1F25E61A0FB0101480D4FF47A71E8
:10148000484303906068B0F5827F0BD120468021ED
:1014900000222B46CDF8008000F06CFA0028C4D161
:1014A000C9E700BF03980028C5D00398013803900E
:1014B000206880680006BED503980028BBD003983A
:1014C00001380390206880680006B4D5039800288E
:1014D000B1D0039801380390206880680006AAD52F
:1014E00003980028A7D003980138039020688068EB
:1014F0000006D7D49FE700002DE9F04383B01E46D5
:1015000015460F460446FFF7C1F994F8511081467D
:10151000012909D1002F4FF0010018BF002D0FD174
:1015200003B0BDE8F08300BF6068B0F5827F0DD1E5
:10153000A06800284FF0020008BF0429F0D1E9E7B5
:10154000002EEDD094F85000012803D1022003B002
:10155000BDE8F083012084F8500094F85100002188
:1015600004281CBF052084F851006165A563E68747
:10157000A6872763E6862068A686216461640168E1
:10158000490603D4016841F0400101606168731E9F
:10159000E268B1FA81F1B3FA83F3DDF828804909F2
:1015A0005B09B2F5006F41EA030165D131B137F84B
:1015B000021BC1602763E08E0138E086012518F127
:1015C000010032D102E000BFFFF760F9E08E18B9E8
:1015D000E08F002800F0B8802068816889070CD56A
:1015E000E18E51B1012D08D1216B002531F8022B7C
:1015F000C2602163E18E0139E1868168C907E3D0C9
:10160000E18F0029E0D0C068A16B012521F8020B11
:10161000A163E08F0138E087D6E700BFFFF736F916
:10162000A0EB0900404580F0A580E08E18B9E08F5E
:10163000002800F089802068816889070CD5E18E38
:1016400051B1012D08D1216B002531F8022BC26068
:101650002163E18E0139E1868168C907DED0E18F1F
:101660000029DBD0C068A16B012521F8020BA16322
:10167000E08F0138E087D1E739B139780173206B09
:1016800001302063E08E0138E086012518F1010069
:1016900032D101E0FFF7FAF8E08E10B9E08F0028B0
:1016A00052D02068816889070ED5E18E61B1012D85
:1016B0000AD1216B002509780173216B2068013163
:1016C0002163E18E0139E1868168C907E2D0E18FAB
:1016D0000029DFD0C068A16B01250870A06B013024
:1016E000A063E08F0138E087D4E700BFFFF7CEF8B2
:1016F000A0EB090040453DD2E08E08B9E08F18B359
:101700002068816889070ED5E18E61B1012D0AD16B
:10171000216B002509780173216B20680131216359
:10172000E18E0139E1868168C907DFD0E18F0029A8
:10173000DCD0C068A16B01250870A06B0130A063EC
:10174000E08F0138E087D1E720460221012243469D
:10175000CDF8009000F00EF9B0B1606D40F02000BF
:10176000606520206065002084F85000012003B0EF
:10177000BDE8F083012084F85100002084F8500077
:10178000032003B0BDE8F08340F20800C2F200007D
:10179000006849F68171C1F25E61A0FB0101480D4C
:1017A0004FF47A71484302906068B0F5827F21D18E
:1017B0002046802100224346CDF8009000F0DAF860
:1017C0000028CAD1A06838B9002001902068C168FB
:1017D0000191806801900198012084F85100002057
:1017E00084F85000606D002818BF012003B0BDE8E8
:1017F000F08300BF02980028E4D0029801380290DC
:10180000206880680006DDD502980028DAD00298AA
:1018100001380290206880680006D3D5029800281D
:10182000D0D0029801380290206880680006C9D59F
:1018300002980028C6D0029801380290206880687B
:101840000006D7D4BEE70000411E0020B0EB116FA8
:101850001CBF012070474EF21002CEF20002516010
:101860004EF62351CEF20001F0230B700721906059
:1018700011607047FEE700002DE9F04186B00027B7
:1018800043F6300005970097C4F202000168002477
:1018900041F0020101600168C4F2020401F002019A
:1018A0000091009900970168002241F080010160D9
:1018B00001684FF0100801F0800100910099009735
:1018C000016841F0010101600068102100F0010091
:1018D000009000982046FEF7D3FF04F58065284667
:1018E000012100220126FEF7CBFFCDE901860DF193
:1018F000040820464146CDE90377FEF7EDFE284671
:101900004146CDE90166CDE90377FEF7E5FE06B075
:10191000BDE8F081B0B540F2840043F20001C2F2AC
:101920000000C4F201014FF48272002380E80E002F
:1019300000F10C014FF0020C4FF0010E4FF4007457
:10194000382581E808500A21C0E90645C0E9083376
:10195000C0E90A31FFF7E6FA002808BFB0BDBDE8CC
:10196000B040FEF7A1BE0000FEE70000FEE7000069
:10197000704700002DE9F04381B0089C9846154659
:101980000E468146FEF782FF201A00EB0804FEF7A0
:101990007DFF40F20801C2F200010968C1F3CB31BA
:1019A00061430091D9F800108A683240921BB2FA64
:1019B00082F25209AA423DD0074618F1010031D007
:1019C000FEF764FFC01BA04238D20098009900289F
:1019D000A1F101010091D9F80010896808BF0446FF
:1019E00001EA0600801BB0FA80F04009A842E7D166
:1019F00020E000BF88683040801BB0FA80F04009CA
:101A0000A84217D088683040801BB0FA80F04009A7
:101A1000A8420FD088683040801BB0FA80F040099F
:101A2000A84207D088683040801BB0FA80F0400997
:101A3000A842DFD1002001B0BDE8F083D9E9000160
:101A40004268B1F5827F22F0E00242600BD1D9F802
:101A50000810B1F5004F02D0B1F5806F03D10168D5
:101A600021F040010160D9F82810B1F5005F07D1DD
:101A7000016821F400510160016841F400510160E6
:101A8000012089F85100002089F85000032001B09E
:101A9000BDE8F08370470000FEF7FEBEB0B592B01F
:101AA000002443F64000CDE90A44CDE908440594FA
:101AB000CDE90344CDE901440094C4F20200016879
:101AC000022541F080510160006800F080500090D4
:101AD000009847F200000094C4F20000016841F44D
:101AE00080410160006800F480400090009801206F
:101AF00006904FF4803007904FF480000D90062040
:101B00000E90A820CDE90F050420119006A80C9591
:101B1000FFF74EF810B172B6FEE700BF0F20CDE917
:101B200001054FF4A05004904FF48050059001A897
:101B300005210394FEF756FF10B172B6FEE700BF11
:101B400012B0B0BD4EF68850CEF20000016841F4EC
:101B50007001016070470000FEE70000FEF7AAFE7A
:101B6000FFF79CFFFFF788FEFFF7D4FEFEF7D0FCDF
:101B700041200221FEF776FD40F27004C2F200041B
:101B8000412021460122FEF73BFD04F1080500BF7C
:101B9000122021460722FEF733FD20462946022265
:101BA000FEF726FC0A20FEF783FDF1E700000000A7
:101BB00030B540F2FF742DED048BF0EE608A18EE24
:101BC000901A85B0B0EE408A9FED2B9B05468DEDB7
:101BD000008B34EA115147D053EC192B51EC180B00
:101BE00000F0B4F840D02A4651EC180B00F044FA4B
:101BF00041EC180B18EE900A8DED008B34EA105072
:101C00001CD053EC192B51EC180B00F09FF82BD182
:101C10000220FEF7A9FB00F043F810EE901A18EE30
:101C2000900A8DED020B8DED008B61F31E00039089
:101C30009DED020B05B0BDEC048B30BD0220FEF71C
:101C400093FB00F01DF810EE901A18EE900A8DED3F
:101C5000020B8DED008B61F31E0003909DED020BD6
:101C600005B0BDEC048B30BD05B0B0EE480AF0EE17
:101C7000680ABDEC048B30BD0000000000000000CD
:101C80009FED050B10B553EC102B51EC100B00F031
:101C9000B1F841EC100B10BD000000000000007016
:101CA0009FED050B10B553EC102B51EC100B00F011
:101CB000A1F841EC100B10BD000000000000001066
:101CC00021F0004201F00043A2F16052B2F5801F02
:101CD00028BFD2F17F6C0BD95FEA001C43EAC20235
:101CE00042EB507018BF704728BF20F001007047CA
:101CF000B2F5801FBCBF184670474FEA410C1CF577
:101D0000001F02D2084600F080B970B500F01CF93F
:101D100000000089FFF7F6BF4FF00040A0F58000FB
:101D20007047000002494FF0000000F073B900BF97
:101D30000000F87F491058BFC1F140415B1058BF07
:101D4000C3F140438B42EFF30080704751EA030C2C
:101D500017D41CF5801F58BFBCF5801F00F106800A
:101D6000994218BF704708BF9042704707D711F5D6
:101D7000801F58BF13F5801F19D4994270478942BC
:101D800070471CF5801F08D5BCF5801FF7D58B4226
:101D900018BF704708BF824270474FF4001C1CEB0D
:101DA000410F38BF1CEB430F01D28B42704770B517
:101DB00000F0CAF8922449004FF000514FF08053D0
:101DC000FFF7B8BF10F0004248BF4042B0FA80F3BE
:101DD00010FA03F10AD0C3F11D0303F5806302EB8F
:101DE00003524FEA415002EBD12170474FF00000FF
:101DF0007047000070B5DFF848C11CEA111E1EBF15
:101E00001CEA13159EEA0C0F95EA0C0F00F06F8088
:101E100081EA03044EEAD47EAE4421EA4C1123EA5F
:101E20004C1341F4801143F48013AEF17F7EA1FB8B
:101E3000024CA0FB0365361955EB0C05A1FB034CC6
:101E40004CF10003A0FB021C16EB0C06654153F19C
:101E50000003094218BF46F0010613F4007F0BD1BE
:101E60004FEA03314FEA053041EA155140EA165076
:101E700034036FF003020AE04FEAC3214FEAC520A2
:101E800041EA555140EA5650F4026FF0020202EB6B
:101E90002E4201EB025585EACE710AD05FEA440C6E
:101EA00018BF24F0004450F1000041F1000120EA85
:101EB000D47040F2FE7C624500D270BDA84214BFCF
:101EC0004FF080444FF04044002E08BF0024BEF184
:101ED000806FA8BFA1F1C041BDE8704080F2828050
:101EE00001F1C04101F000414FF0000070470CEAE1
:101EF00013159EEA0C0F18BF95EA0C0F06D081EA65
:101F0000030E4FF000000EF0004170BD00F01CF811
:101F10008900013E00F007B800F009B84FEA430C11
:101F20005FEA5C5C08D081EA030100F05BB84FEA2D
:101F3000410C5FEA5C5CF6D102494FF0000070474B
:101F40000000FF070000F87F0EF1020E2EF0030ED6
:101F50005EF8046B364205D4012A43EB030515F500
:101F6000001F12D8012841EB010C1CF5001F0CD8F2
:101F70000ED14FEAD17C0CEB4C0C0CF1020C15F598
:101F8000001F08BF4CEBD37C04E04FF0080C01E0CD
:101F90004FEAD37C0CEB4C0526FA05F606F0070653
:101FA000B6F1040C06D20EEB860CBDE870404CF086
:101FB000010C6047DFE80CF0090B02024FF0004112
:101FC000A1F500214FF0000070BD19461046012810
:101FD00051EB010418BFD4F5001484BF002001F0B8
:101FE000004170BD0808A0F500114FEA31017047AB
:101FF000F1EE100A4FF6FF71C0F2C03120EA010085
:1020000040F04070E1EE100A7047FF2141EAD050E5
:10201000C00570470CF00F03092B08BF082000F023
:1020200059800A2B0BD0082B18BF704708BF1CF033
:10203000400F0AD04FF000004FF0000170471CF035
:10204000400F18BF4FF0004070471CF0100F08D031
:1020500000F07F4220F0704342EAD3014FEA437020
:10206000704700F0604021F07F4242EA000201F038
:102070007F4040EA727070474FF0FF0C4CF4E06C08
:102080001CEA11531CBF9CEA030C9445C2BFDA4200
:1020900001EB02517047002B0DD0BCF1000F0FD0A7
:1020A00001F00041002AA4BF41F0E04141F07F610E
:1020B0004FF00000704701F000414FF00000704702
:1020C00050EA01334FF09B0C18BF4CF0806C7FF44A
:1020D00029AE70471CF4801F11D01CF4E02F03D0F0
:1020E0006FEACC31490070474FF04050EFF3008267
:1020F00022F0704242EA000282F3008870474FF0FB
:10210000000070470000000000000000010203040E
:102110000607080938210008000000201000000010
:10212000C40100084821000810000020D00600006B
:10213000E0010008000000000100000010000000A5
:082140000024F400000000007F
:040000050800018965
:00000001FF
